:100988004F76656E20436F6E74726F6C0054696D9C
:1009980065456E7465723A0030303A3030003A007E
:1009A800253032643A25303264004F70656E204439
:1009B8006F6F7200436C6F736520446F6F720069CC
:0E09C8006E76616C696420666F726D617400FA
:050C2F00C189010A006B
:10035F00120BD97BFF7A097988E4FDFF120B6D7FB1
:10036F00C87E00020544E50A1470030204D4147019
:10037F000302054A240270EE7BFF7A097995E4FDAA
:10038F007F01120B6D7FC87E00120B937BFF7A09E2
:10039F0079A07D0A7F01120B6D2009030204CEE4C0
:1003AF00F51CF51D740D251DF87630051DE51D7026
:1003BF0002051C6404451C70EBE4F51CF51D1206C8
:1003CF007C8F1BE51BC394304044E51BD3943950FD
:1003DF003D850F10850E0F850D0E851B0DAB107D06
:1003EF000A7F01120C25AB0F7D0B7F01120C257BB1
:1003FF00FF7A0979A67D0C7F01120B6DAB0E7D0D77
:10040F007F01120C25AB0D7D0E7F01120C25051DF2
:10041F00E51D7002051CC39404E51C6480948040A4
:10042F009DAF10EF3395E0FEEF24D0FFEE34FFFECB
:10043F007C007D0A1207FEAD0FED3395E0FCED2435
:10044F00D0FDEC34FFCD2FF50CED3EF50BAF0EEFDD
:10045F003395E0FEEF24D0FFEE34FFFE7C007D0AE3
:10046F001207FEAD0DED3395E0FCED24D0FDEC341D
:10047F00FFCD2FF509ED3EF5087525FF752609759A
:10048F0027A8850B28850C29F52A85092B7B007A4F
:10049F0000791312005F7B007A0079137D0A7F01C8
:1004AF00120B6DC209E50DB43013E50EB4300EE535
:1004BF000FB43009E51064307003020375800075C6
:1004CF000A0102037512067C8F1EE51E6443704EEF
:1004DF0020A021120BB67BFF7A0979B2E4FD7F01D0
:1004EF00120B6D7FE87E03120B937F0A7E00120AB8
:1004FF001B020375120BB67BFF7A0979BCE4FD7FF3
:10050F0001120B6D7FB87E0B120B93120BB67FE8A7
:10051F007E03120B93750A027FE87E038017E51E98
:10052F00643D6003020375D2097FFAFE120B93E458
:10053F00F50A7F64FE120B93020375850811850976
:10054F0012850B19850C1AC3E51A943BE5196480C3
:10055F009480400302064CC3E512943BE51164807E
:10056F009480400302064C20A0357BFF7A0979B2B4
:10057F00E4FD7F01120B6D7F0A7E00120A1B12062B
:10058F007CBF43FA7BFF7A0979BCE4FD7F01120B34
:10059F006D7FB87E0B120B937F09120AAA80C8E5F4
:1005AF0012151270021511C3E51164809480500E5C
:1005BF0075110075123BE51A151A70021519C3E56E
:1005CF0019648094805009E4F519F51AF511F512A4
:1005DF007FA0120B47752602AB1AAA197D0A7F015D
:1005EF001209D67BFF7A0979A67D0C7F01120B6D5C
:1005FF00752602AB12AA117D0D7F011209D6120AC0
:10060F004EBF432012067CEF644360127FF47E01DD
:10061F00120B93120A4EBF3DEBD209E4F50A3009D3
:10062F0003020375E51A45196003020576E51245C5
:10063F00116003020576D209F50A020375120BB693
:10064F007F647E00120B937BFF7A0979C7E4FD7FED
:10065F0001120B6D7F0A7E00120A1B7FA87E6112AA
:0D066F000B93120BB6D209E4F50A020375D5
:100BD9007F38120C017F0C120C017F01120C017F6E
:040BE90080020C0179
:100C01008F80C2A5C2A6120B21C2A77F0A7E000255
:020C11000B27AF
:100C13008F80C2A5D2A6120B21C2A77F0A7E000233
:020C23000B279D
:060A7F008B368A3789382E
:100A8500E4F539F53AAB36AA37A938853A8285397E
:100A9500831207D1FF600D120C13053AE53A70E594
:040AA500053980E1AE
:010AA900222A
:100BED00EF7007ED2480F5288005ED24C0F528AFC2
:040BFD0028020C01BD
:060B2100D2A77F0A7E004E
:100B2700E4FDFCC3ED9FEC9E5015E4FBFA0BBB0004
:0F0B3700010AEB64704A70F50DBD00010C80E4FB
:010B4600228C
:100B4700E4FDFCEFFBC3ED9BEC94005018758D4B57
:100B5700758BFDC28FD28E308FFDC28FC28E0DBDB9
:050B670000010C80DE1E
:010B6C002266
:100B9300E4FDFCC3ED9FEC9E5018758CFC758A64D4
:100BA300C28DD28C308DFDC28DC28C0DBD00010C67
:020BB30080E1DF
:010BB500221D
:050C38007F01020C0128
:080AD3008E288F298C2A8D2B3F
:100ADB007F017E00E4FBEBC3952BE52A6480F87461
:0E0AEB008098500AAC28AD291207FE0B80E857
:010AF90022DA
:0409D6008A248B25BF
:1009DA00120BED852627E527D39400402FE527241F
:1009EA00FFFDE434FFFC7F0A7E00120AD3AC24AD7B
:1009FA0025CFCDCFCECCCE1208107C007D0A1208AE
:0C0A0A0010ED2430FF120C13152780CAD9
:010A160022BD
:0A0C25008B22120BEDAF22020C131C
:060B6D008B228A2389247B
:100B7300120BEDE4F525AB22AA23A9248525827562
:0F0B830083001207D1FF6007120C13052580E7CE
:010B92002240
:100BB6007FC0120C01E4F522F5237F20120C1305E9
:100BC60023E52370020522C39410E52264809480F5
:020BD60040E8F5
:010BD80022FA
:020AAA008F2299
:100AAC007FC0120C01E4F523F524C3E524952274D0
:100ABC0080F8652398500F7F20120C130524E52431
:060ACC0070E8052380E440
:010AD2002201
:030C3400011F009D
:040A17007F017E00DD
:040A1B008E228F2375
:100A1F00E4F524D3E5249523E495225021E4FFC285
:100A2F0095E4FE0EBE32FCD295E4FE0EBE32FC0FF4
:0E0A3F00BFFAEC7FF47E01120B93052480D5E4
:010A4D002286
:10067C00C297D296D295D2942093107FD07E071237
:10068C000B93209306120A177F37222092107FD0EB
:10069C007E07120B93209206120A177F38222091A4
:1006AC00107FD07E07120B93209106120A177F3908
:1006BC00222090107FD07E07120B93209006120AF6
:1006CC00177F2F22D297C296D295D2942093107F67
:1006DC00D07E07120B93209306120A177F34222028
:1006EC0092107FD07E07120B93209206120A177F6E
:1006FC0035222091107FD07E07120B932091061289
:10070C000A177F36222090107FD07E07120B932081
:10071C009006120A177F2A22D297D296C295D294AB
:10072C002093107FD07E07120B93209306120A178A
:10073C007F31222092107FD07E07120B93209206DD
:10074C00120A177F32222091107FD07E07120B9352
:10075C00209106120A177F33222090107FD07E073B
:10076C00120B93209006120A177F2D22D297D29645
:10077C00D295C2942093107FD07E07120B932093B6
:10078C0006120A177F43222092107FD07E07120B8D
:10079C0093209206120A177F30222091107FD07E70
:1007AC0007120B93209106120A177F3D22209010FE
:1007BC007FD07E07120B93209006120A177F2B22F4
:0507CC00D29402067C3E
:100A4E00D297D296D295C2942093107FD07E071261
:100A5E000B93209306120A177F43222091107FD00A
:100A6E007E07120B93209106120A177F3D22D29415
:010A7E002255
:030000000208FCF7
:0C08FC00787FE4F6D8FD75813A020943CC
:1007D100BB010CE58229F582E5833AF583E02250DD
:1007E10006E92582F8E622BBFE06E92582F8E22227
:0D07F100E58229F582E5833AF583E4932241
:1007FE00EF8DF0A4A8F0CF8CF0A428CE8DF0A42E0F
:02080E00FE22C8
:10081000C2D5EC30E709B2D5E4C39DFDE49CFCEE03
:1008200030E715B2D5E4C39FFFE49EFE120871C302
:10083000E49DFDE49CFC800312087130D507C3E4FD
:060840009FFFE49EFE2272
:10000300E5312425F8E605312278223007027825E8
:10001300E475F0011208C60208462000EB7F2ED2D9
:10002300008018EF540F2490D43440D4FF30040BD5
:10003300EF24BFB41A0050032461FFE532600215B8
:10004300320535E5357002053430070D7822E47545
:10005300F0011208C6EF02085F020AFA7403D2071E
:100063008003E4C207F5318B228A238924E4F53225
:10007300F534F535E53260077F2012003E80F575D3
:1000830033FFC201C200C202C203C205C206C208D4
:1000930012000CFF700D3007057F0012004FAF35C3
:1000A300AE3422B4255FC2D5C20412000CFF24D0A3
:1000B300B40A00501A75F00A783230D50508B6FF35
:1000C3000106C6A426F620D5047002D20380D924E3
:1000D300CFB41A00EF5004C2E5D20402024FD2019A
:1000E30080C6D20080C0D20280BCD2D580BAD205ED
:1000F30080B47F2012003E2002077401B532004015
:10010300F1120003FF12003E020077D208D20680EC
:1001130095120003FB120003FA120003F94A4B7015
:100123000679207A037BFF20022EE532602A7E00C7
:100133008E827583001207D160060EEE653370F070
:10014300C2D5EBC0E0EAC0E0E9C0E0EE120296D00F
:10015300E0F9D0E0FAD0E0FB120846FF60AAEBC05A
:10016300E0EAC0E0E9C0E012003ED0E02401F9D0AB
:10017300E03400FAD0E0FBE5330460DCD533D9800A
:10018300877BFF7A027992D202809C791080027970
:1001930008C206C2088008D2D5790A8004790AC247
:1001A300D5E533047002F533E4FAFDFEFF120003D4
:1001B300FC7B08200113120003FD7B1030000A12A0
:1001C3000003FE120003FF7B20EC3382D592D5504F
:1001D30013C3E43000069FFFE49EFEE42001039D69
:1001E300FDE49CFCE4CBF8C201EC700CCFCECDCC8B
:1001F300E824F8F870F38017C3EF33FFEE33FEED16
:1002030033FDEC33FCEB33FB994002FB0FD8E9EBF6
:10021300300105F8D0E0C448B201C0E00AEC4D4E0D
:100223004F78207B0070C2EAB5330040BCC0E012B7
:100233000298D0F0D0E0200104C4C0E0C4B201C0F1
:10024300F0120027D0F0D5F0EB0200771208D601A8
:100253001453018E5800E54C00E14201924F019A7C
:0F02630044019A4900FA4301A0550184460184E1
:100272004501844703405000E92D00ED2E01102B6B
:1002820000F123010E2003292A00A94800000108D9
:100292003F3F3F00790AA2D5200314300509B91067
:1002A200020404B9080104A2D52006025001042068
:1002B20002689202B532005034C0E07F2030031948
:1002C2007F30A20272067205500F1202EFC202C202
:1002D20006C205C2087F30800F300503E9C0E01274
:1002E200003E300503D0E0F9D0E0B532CC3005173E
:1002F2007F30B9100C12003E7F583004077F78809F
:1003020003B9080312003E3002057F2D02003E7F32
:10031200202008F87F2B2006F322920280CF286E3D
:10032200756C6C2900D2011200033001F8C2017809
:100332003230D50108F60200A92D50434958120067
:10034200032403B405004001E490033B9312002F01
:0D035200743A12002FD20375320402018E9E
:1009080002035FE493A3F8E493A34003F68001F2A3
:1009180008DFF48029E493A3F85407240CC8C333F0
:10092800C4540F4420C8834004F456800146F6DFBF
:10093800E4800B0102040810204080900C2FE47E14
:10094800019360BCA3FF543F30E509541FFEE493B4
:10095800A360010ECF54C025E060A840B8E493A37B
:10096800FAE493A3F8E493A3C8C582C8CAC583CAA6
:10097800F0A3C8C582C8CAC583CADFE9DEE780BE5E
:010C370000BC
:10084600BB010689828A83E0225002E722BBFE02B0
:09085600E32289828A83E49322E3
:10085F00BB010689828A83F0225002F722BBFE0178
:02086F00F32272
:10087100BC000BBE0029EF8DF084FFADF022E4CC6B
:10088100F875F008EF2FFFEE33FEEC33FCEE9DEC34
:10089100984005FCEE9DFE0FD5F0E9E4CEFD22ED7A
:1008A100F8F5F0EE8420D21CFEADF075F008EF2FC4
:1008B100FFED33FD4007985006D5F0F222C398FDB5
:0508C1000FD5F0EA2252
:1008C600FAE6FB0808E6F925F0F618E6CA3AF62233
:1008D600D083D082F8E4937012740193700DA3A3B1
:1008E60093F8740193F5828883E4737402936860C5
:0608F600EFA3A3A380DFC5
:100AFA00EFB40A07740D120B05740A309811A899FD
:100B0A00B8130CC2983098FDA899C298B811F6305B
:070B1A0099FDC299F5992233
:00000001FF
